:100000000C945F000C9487000C9487000C9487007C
:100010000C9487000C9487000C9487000C94870044
:100020000C9487000C9487000C9487000C94230791
:100030000C9487000C9487000C9487000C94870024
:100040000C949A090C9487000C94650C0C94970CF2
:100050000C9487000C9487000C9487000C94870004
:100060000C9487000C948700000000080002010037
:100070000003040700000000000000000102040863
:100080001020408001020408102001020408102002
:10009000040404040404040402020202020203032E
:1000A0000303030300000000250028002B000000CC
:1000B0000000240027002A007A05C70CAE05112491
:1000C0001FBECFEFD8E0DEBFCDBF11E0A0E0B1E0B2
:1000D000E4E7F6E202C005900D92A432B107D9F729
:1000E00023E0A4E2B1E001C01D92A63BB207E1F714
:1000F00010E0CCEBD0E004C02297FE010E94A610D5
:10010000C83BD107C9F70E94780E0C942D130C94AC
:10011000000061E08DE00E94B10A63E070E083EED0
:1001200092E00E94790865E070E080EE92E00E9423
:10013000790866E070E08DED92E00E94790869E050
:1001400070E08AED92E00E9479086AE070E087ED45
:1001500092E00E94790826E040E855E260E070E015
:1001600085E193E00C94030CCF92DF92EF92FF9223
:10017000809110019091110120913F013091400137
:10018000281739070CF40EC1019690931101809342
:1001900010018130910519F440E85EE311C08A3006
:1001A000910519F440EE5EE20BC08431910519F41B
:1001B00040E45FE105C08E31910531F440EA5FE033
:1001C00050930F0140930E01A90148525109841721
:1001D000950719F480E49FE119C0A9014E51510916
:1001E0008417950719F480EE9EE210C0A9014451CE
:1001F00051098417950719F480E89EE307C02A5037
:1002000031098217930731F480E29EE490930F0145
:1002100080930E012091470130914801409149019E
:1002200050914A0160915B0170915C0180915D0188
:1002300090915E010E94890E6B017C0160935B01CD
:1002400070935C0180935D0190935E0120914B015E
:1002500030914C0140914D0150914E0160915F01F0
:100260007091600180916101909162010E94890EFC
:1002700060935F01709360018093610190936201CC
:1002800020914F0130915001409151015091520104
:1002900060916301709164018091650190916601A4
:1002A0000E94890E609363017093640180936501DD
:1002B0009093660120915301309154014091550172
:1002C00050915601609167017091680180916901B8
:1002D00090916A010E94890E609367017093680192
:1002E0008093690190936A012091570130915801E0
:1002F0004091590150915A0160916B0170916C01CC
:1003000080916D0190916E010E94890E60936B0146
:1003100070936C0180936D0190936E01C701B601DB
:100320000E94550F83EE92E00E94B20860915F0137
:100330007091600180916101909162010E94550F5E
:1003400080EE92E00E94B2086091630170916401B6
:1003500080916501909166010E94550F8DED92E0AC
:100360000E94B208609167017091680180916901F3
:1003700090916A010E94550F8AED92E00E94B208A6
:1003800060916B0170916C0180916D0190916E0193
:100390000E94550F87ED92E0FF90EF90DF90CF9095
:1003A0000C94B2081092400110923F0181E090E05D
:1003B0009093110180931001809145019091460125
:1003C0000196909346018093450181E080930B0153
:1003D000FF90EF90DF90CF9008954F925F926F92D1
:1003E0007F928F929F92AF92BF92CF92DF92EF92C5
:1003F000FF920F931F93CF93DF93CDB7DEB7A497F0
:100400000FB6F894DEBF0FBECDBF80915B01909117
:100410005C01A0915D01B0915E0189879A87AB87ED
:10042000BC8700914501109146015801AA0CBB1CE4
:10043000F501E957FD4F60817181882777FD80952F
:10044000982F0E94880F2B013C019B01AC0169850C
:100450007A858B859C850E94880E6B017C0120E04B
:1004600030E0A9010E943810181624F0F7FAF09431
:10047000F7F8F094C0926F01D0927001E092710190
:10048000F092720180915F0190916001A0916101F1
:10049000B09162018D879E87AF87B88BF501E95CCB
:1004A000FD4F60817181882777FD8095982F0E948C
:1004B000880F698B7A8B8B8B9C8B9B01AC016D8534
:1004C0007E858F8598890E94880E4B015C0120E013
:1004D00030E0A9010E943810181644F0D501C4017B
:1004E000B05889839A83AB83BC8304C089829A8283
:1004F000AB82BC8289819A81AB81BC81809373017C
:1005000090937401A0937501B0937601809163017B
:1005100090916401A0916501B09166018D8B9E8BD5
:10052000AF8BB88F000F111FF801E951FE4F6081AA
:100530007181882777FD8095982F0E94880F698F99
:100540007A8F8B8F9C8F9B01AC016D897E898F89FF
:10055000988D0E94880E4B015C0120E030E0A901DB
:100560000E943810181644F0D501C401B0588D838C
:100570009E83AF83B88704C08D829E82AF82B88687
:100580008D819E81AF81B8858093770190937801AA
:10059000A0937901B0937A018091670190916801ED
:1005A000A0916901B0916A018D8F9E8FAF8FB8A322
:1005B000F801E956FE4F60817181882777FD8095AB
:1005C000982F0E94880F69A37AA38BA39CA39B01F9
:1005D000AC016D8D7E8D8F8D98A10E94880E4B0190
:1005E0005C0120E030E0A9010E943810181624F0C8
:1005F000B7FAB094B7F8B09480927B0190927C01E6
:10060000A0927D01B0927E0129813A814B815C816B
:10061000C701B6010E94381018161CF4C701B601B4
:1006200004C069817A818B819C810E94550F8B0166
:10063000882777FD8095982F0E94880F2D813E8115
:100640004F8158850E94381018163CF06D817E81CC
:100650008F8198850E94550F8B01B801882777FDFF
:100660008095982F0E94880FA50194010E94381050
:1006700018162CF0C501B4010E94550F8B01109380
:10068000400100933F01A301920169857A858B8522
:100690009C850E9438102801662457FC6094762CB3
:1006A00018164CF4A701960160E070E0CB010E949F
:1006B000880E6B017C01C301B2010E94880F9B016F
:1006C000AC01C701B6010E94ED0E60934701709323
:1006D00048018093490190934A0129893A894B89BD
:1006E0005C896D857E858F8598890E9438101816E3
:1006F000A4F429813A814B815C8160E070E0CB01F8
:100700000E94880E6B017C01C301B2010E94880F18
:100710009B01AC01C701B6010AC0C301B2010E942E
:10072000880F9B01AC0169817A818B819C810E9439
:10073000ED0E60934B0170934C0180934D019093AB
:100740004E01298D3A8D4B8D5C8D6D897E898F8907
:10075000988D0E9438101816A4F42D813E814F8187
:10076000588560E070E0CB010E94880E6B017C012F
:10077000C301B2010E94880F9B01AC01C701B60101
:100780000AC0C301B2010E94880F9B01AC016D81B8
:100790007E818F8198850E94ED0E60934F0170934A
:1007A0005001809351019093520129A13AA14BA18C
:1007B0005CA16D8D7E8D8F8D98A10E9438101816CA
:1007C00094F4A501940160E070E0CB010E94880ED2
:1007D0006B017C01C301B2010E94880F9B01AC0137
:1007E000C701B60108C0C301B2010E94880F9B0176
:1007F000AC01C501B4010E94ED0E609353017093EA
:100800005401809355019093560110920B01A496C8
:100810000FB6F894DEBF0FBECDBFDF91CF911F9111
:100820000F91FF90EF90DF90CF90BF90AF909F908F
:100830008F907F906F905F904F900895CF93DF934C
:10084000C0914501D0914601CC0FDD1FFE01E95753
:10085000FD4F60817181882777FD8095982F0E94D8
:10086000880F60935B0170935C0180935D019093AE
:100870005E01FE01E95CFD4F60817181882777FD93
:100880008095982F0E94880F60935F01709360019C
:100890008093610190936201FE01E951FE4F6081F6
:1008A0007181882777FD8095982F0E94880F60932B
:1008B0006301709364018093650190936601C9564A
:1008C000DE4F68817981882777FD8095982F0E9477
:1008D000880F60936701709368018093690190931A
:1008E0006A0110920A01DF91CF91089583EE92E0A0
:1008F0000E943409BC01882777FD8095982F0E94BB
:10090000880F609383017093840180938501909395
:10091000860180EE92E00E943409BC01882777FDB1
:100920008095982F0E94880F6093870170938801AB
:100930008093890190938A018DED92E00E943409A1
:10094000BC01882777FD8095982F0E94880F6093BF
:100950008B0170938C0180938D0190938E018AEDB1
:1009600092E00E943409BC01882777FD8095982F7A
:100970000E94880F60938F01709390018093910182
:100980009093920108950F931F93CF93DF930E944A
:100990007604C0914501D0914601CC0FDD1F8E0138
:1009A00009571D4F609183017091840180918501E9
:1009B000909186010E94550FF801718360838E012A
:1009C000095C1D4F609187017091880180918901B8
:1009D00090918A010E94550FF801718360838E0106
:1009E00009511E4F60918B0170918C0180918D0196
:1009F00090918E010E94550FF80171836083C95652
:100A0000DE4F60918F0170919001809191019091E2
:100A100092010E94550F79836883DF91CF911F91D6
:100A20000F91089580914501909146010196909310
:100A300046018093450180910D01882321F0109299
:100A40004601109245010E94C30480914501909196
:100A50004601909342018093410110920D0161E0A3
:100A60008DE00E94EA0A64E670E080E090E00E9477
:100A7000130A60E08DE00C94EA0ACF93DF93E7E875
:100A8000F2E087E392E0C7EED1E047E951E011924E
:100A90001192DC011D921D92CD0119921992DA0179
:100AA0001D921D92AD01B2E0E73DFB0781F7109268
:100AB0004601109245011092440110924301109298
:100AC00042011092410181E090E0909311018093E6
:100AD00010011092400110923F0110923201809358
:100AE0000D0180930C0180930B0180930A01DF912B
:100AF000CF91089583EE92E00E94DF0780EE92E0AE
:100B00000E94DF078DED92E00E94DF078AED92E000
:100B10000E94DF0787ED92E00E94DF070E94E40950
:100B200060933701709338018093390190933A01B3
:100B30000E94F00960933301709334018093350172
:100B40009093360163E171E08AE291E00E94FF0D2B
:100B500063E171E084E291E00C94FF0D84E291E0A6
:100B60000E94910D8AE291E00C94910D65E070E095
:100B700080E090E00E94130A85E193E00E94200B40
:100B8000892B51F085E193E00E94390B682F84E2B4
:100B900091E00E94590EF0CF809128019091290197
:100BA000892B71F084E291E00E946C0E83EE92E05A
:100BB0000E94B20863E171E084E291E00C94150EAA
:100BC000089565E070E080E090E00E94130A85E1FE
:100BD00093E00E94200B892B51F085E193E00E9465
:100BE000390B682F8AE291E00E94590EF0CF809174
:100BF0002E0190912F01892B71F08AE291E00E94E1
:100C00006C0E80EE92E00E94B20863E171E08AE22D
:100C100091E00C94150E089565E070E080E090E09E
:100C20000E94130A85E193E00E94200B892B51F06A
:100C300085E193E00E94390B682F8AE291E00E94DF
:100C4000590EF0CF80912E0190912F01892B71F0D8
:100C50008AE291E00E946C0E8DED92E00E94B20853
:100C600063E171E08AE291E00C94150E089565E06D
:100C700070E080E090E00E94130A85E193E00E941A
:100C8000200B892B51F085E193E00E94390B682FEE
:100C90008AE291E00E94590EF0CF80912E0190914E
:100CA0002F01892B71F08AE291E00E946C0E8AED8F
:100CB00092E00E94B20863E171E08AE291E00C9454
:100CC000150E089585E193E00E94200B892BB9F160
:100CD00085E193E00E94390B80933001823511F455
:100CE0000E94120580913001803521F481E08093CB
:100CF00032010DC0833539F48091310191E08927AB
:100D00008093310104C0883511F40E943D05809123
:100D10003001813411F40E94B60580913001823493
:100D200011F40E94E10580913001833411F40E9496
:100D30000C0680913001843411F40C943706089528
:100D40000F931F930E94E409609337017093380159
:100D50008093390190933A010E94F0096093330126
:100D60007093340180933501909336010E9462069E
:100D700080913201882309F45FC080910C0188239F
:100D800061F080910A0181110E941E0410924601B7
:100D90001092450110920C011BC020914501309129
:100DA000460180914101909142018217930784F49A
:100DB00080913101811108C01092320162E171E02D
:100DC00085E193E00E94480D109246011092450182
:100DD00080910B0181110E94ED018091330190916E
:100DE0003401A0913501B091360140913B01509101
:100DF0003C0160913D0170913E018C019D01041BFD
:100E0000150B260B370B40910E0150910F016627F1
:100E100057FD6095762F401751076207730780F4DE
:100E200080933B0190933C01A0933D01B0933E0120
:100E30001F910F910C94B4001F910F910C946206B6
:100E40001F910F9108951F920F920FB60F921124C8
:100E50002F933F934F935F936F937F938F939F93C2
:100E6000AF93BF93EF93FF938091E70287FF05C095
:100E700010928500109284001AC02091E702332757
:100E800027FD30958091E60290E0281739077CF421
:100E90008091E702992787FD9095FC01EE0FFF1FD7
:100EA000E80FF91FE851FD4F808186FD15C0809144
:100EB000E7028F5F8093E7022091E702332727FD47
:100EC00030958091E60290E028173907BCF48091B4
:100ED000E7028C305CF112C08091E702992787FD10
:100EE0009095FC01EE0FFF1FE80FF91FE851FD4F31
:100EF000808160E08F730E94EA0AD9CF80918400DC
:100F000090918500049680349C4918F480E49CE913
:100F100005C080918400909185000496909389008B
:100F2000809388008FEF8093E70238C0209184007F
:100F3000309185008091E702992787FD9095FC010B
:100F4000EE0FFF1FE80FF91FE851FD4F81819281DD
:100F5000820F931F90938900809388008091E7020D
:100F6000992787FD9095FC01EE0FFF1FE80FF91FF1
:100F7000E851FD4F808186FF11C08091E7029927DB
:100F800087FD9095FC01EE0FFF1FE80FF91FE85158
:100F9000FD4F808161E08F730E94EA0AFF91EF911B
:100FA000BF91AF919F918F917F916F915F914F9181
:100FB0003F912F910F900FBE0F901F901895209189
:100FC000E6022C30A0F431E0320F3093E602FC014F
:100FD0002083822F90E0FC01EE0FFF1FE80FF91F26
:100FE000E851FD4F88EB9BE09283818308952FEFBA
:100FF000FC0120830895DF92EF92FF920F931F93DD
:10100000CF93DF93EC01D62E7A01890188818C3051
:1010100008F066C061E08D2D0E94B10A8881A82F7A
:10102000B0E0FD01EE0FFF1FEA0FFB1FE851FD4F7F
:101030002D2D2F739081907C922B908360E272E033
:101040006E197F0977FF02C06D5F7F4F75956795B9
:1010500075956795698340E659E0401B510B57FF32
:1010600002C04D5F5F4F55954795559547954A830B
:101070006CE00E944C109CE0899FB001112420E09C
:1010800030E0A901460F571FFA01EE0FFF1FE40FD2
:10109000F51FE851FD4F908196FD16C02F5F3F4F21
:1010A0002C30310571F781110FC01092800082E061
:1010B000809381001092850010928400B19A8091F3
:1010C0006F00826080936F00888190E0FC01EE0FDA
:1010D000FF1FE80FF91FE851FD4F80818064808376
:1010E0008881DF91CF911F910F91FF90EF90DF905A
:1010F000089520E639E040E252E00C94FB07FC0141
:1011000080818C3070F5918128E830E0291B31090D
:1011100097FD3395220F331F220F331F621773077A
:101120007CF0928128E532E0291B310997FD339547
:10113000220F331F220F331F621773070CF49B011A
:1011400022503109220F331F4FB7F89490E0FC0171
:10115000EE0FFF1FE80FF91FE851FD4F3283218387
:101160004FBF08954F925F926F927F92AF92BF925E
:10117000CF92DF92EF92FF920F931F93CF93DF9363
:10118000EC01603282E078070CF040C077FD06C0C9
:10119000653B71052CF064EB70E002C060E070E02C
:1011A000898128E830E0281B310987FD3395220F1B
:1011B000331F220F331F5901CC24B7FCC094DC2C01
:1011C000882777FD8095982F2A8148E552E0421BB9
:1011D000510927FD5395440F551F440F551F2A01F0
:1011E000662457FC6094762C7F926F925F924F92A8
:1011F00014EBE12EF12C00E010E020E030E0A9013A
:101200000E944A0D0F900F900F900F90CE01DF912A
:10121000CF911F910F91FF90EF90DF90CF90BF90F3
:10122000AF907F906F905F904F900C947F08FC017F
:1012300080818F3FB1F090E0FC01EE0FFF1FE80FBF
:10124000F91FE851FD4F8181928143E0880F991F7A
:101250004A95E1F754E0969587955A95E1F70296FD
:10126000089580E090E008954F925F926F927F9290
:10127000AF92BF92CF92DF92EF92FF920F931F93A4
:10128000CF93DF9300D000D0CDB7DEB7FC01228131
:1012900048E552E0421B510927FD5395440F551F65
:1012A000440F551F2A01662457FC6094762C418117
:1012B00028E830E0241B310947FD3395220F331F06
:1012C000220F331F442737FD4095542F29833A833B
:1012D0004B835C830E9417090196BC01882777FD28
:1012E0008095982F1F921F921F92E4EBEF93A12CF1
:1012F000B12C65018301720129813A814B815C81A6
:101300000E944A0D0F900F900F900F90CB010F90FD
:101310000F900F900F90DF91CF911F910F91FF9041
:10132000EF90DF90CF90BF90AF907F906F905F90E5
:101330004F9008951F920F920FB60F9211242F9382
:101340003F938F939F93AF93BF9380910D039091A1
:101350000E03A0910F03B091100330910C0323E012
:10136000230F2D3720F40196A11DB11D05C026E8DD
:10137000230F0296A11DB11D20930C0380930D0332
:1013800090930E03A0930F03B09310038091110369
:1013900090911203A0911303B09114030196A11D23
:1013A000B11D8093110390931203A0931303B09384
:1013B0001403BF91AF919F918F913F912F910F9007
:1013C0000FBE0F901F9018952FB7F89460910D03E2
:1013D00070910E0380910F03909110032FBF089519
:1013E0003FB7F8948091110390911203A0911303D9
:1013F000B091140326B5A89B05C02F3F19F00196A4
:10140000A11DB11D3FBF6627782F892F9A2F620F2C
:10141000711D811D911D42E0660F771F881F991F66
:101420004A95D1F708958F929F92AF92BF92CF9233
:10143000DF92EF92FF926B017C010E94F0094B0159
:101440005C01C114D104E104F104F1F00E94870EA3
:101450000E94F009681979098A099B09683E73405E
:101460008105910570F321E0C21AD108E108F10865
:1014700088EE880E83E0981EA11CB11CC114D10413
:10148000E104F10429F7DDCFFF90EF90DF90CF90DA
:10149000BF90AF909F908F900895789484B58260AC
:1014A00084BD84B5816084BD85B5826085BD85B508
:1014B000816085BDEEE6F0E0808181608083E1E8B7
:1014C000F0E01082808182608083808181608083EF
:1014D000E0E8F0E0808181608083E1EBF0E08081F2
:1014E00084608083E0EBF0E0808181608083EAE7C4
:1014F000F0E080818460808380818260808380814D
:10150000816080838081806880831092C10008950B
:10151000833081F028F4813099F08230A1F0089571
:101520008730A9F08830B9F08430D1F48091800000
:101530008F7D03C0809180008F7780938000089515
:1015400084B58F7702C084B58F7D84BD0895809166
:10155000B0008F7703C08091B0008F7D8093B00082
:101560000895CF93DF9390E0FC01E458FF4F24915E
:10157000FC01E057FF4F8491882349F190E0880FE8
:10158000991FFC01E255FF4FA591B4918C559F4FD7
:10159000FC01C591D4919FB7611108C0F8948C915A
:1015A000209582238C93888182230AC0623051F473
:1015B000F8948C91322F309583238C938881822BE1
:1015C000888304C0F8948C91822B8C939FBFDF9109
:1015D000CF9108950F931F93CF93DF931F92CDB7B1
:1015E000DEB7282F30E0F901E859FF4F8491F90167
:1015F000E458FF4F1491F901E057FF4F0491002385
:10160000C9F0882321F069830E94880A6981E02F4C
:10161000F0E0EE0FFF1FEC55FF4FA591B4919FB77F
:10162000F8948C91611103C01095812301C0812B26
:101630008C939FBF0F90DF91CF911F910F910895D1
:10164000FC01818D228D90E0805C9F4F821B91096F
:101650008F7399270895FC01918D828D981731F031
:10166000828DE80FF11D858D90E008958FEF9FEF3B
:101670000895FC01918D828D981761F0828DDF01B4
:10168000A80FB11D5D968C91928D9F5F9F73928F75
:1016900090E008958FEF9FEF08958DEB9CE0892BEC
:1016A00049F080E090E0892B29F00E94BD0C811167
:1016B0000C9400000895FC01848DDF01A80FB11D7A
:1016C000A35ABF4F2C91848D90E001968F73992778
:1016D000848FA689B7892C93A089B1898C91806465
:1016E0008C93938D848D981306C00288F389E02D26
:1016F00080818F7D80830895CF93DF93EC01888D67
:101700008823C9F0EA89FB89808185FD05C0A88905
:10171000B9898C9186FD0FC00FB607FCF5CF80818B
:1017200085FFF2CFA889B9898C9185FFEDCFCE01D5
:101730000E945B0BE7CFDF91CF910895CF92DF92AC
:10174000FF920F931F93CF93DF931F92CDB7DEB716
:101750006C0181E0D60158968C9358975B969C91CA
:101760005B975C968C915C97981307C05096ED91AF
:10177000FC915197808185FD2EC0F601038D10E00C
:101780000F5F1F4F0F731127F02EF601848DF81293
:1017900011C00FB607FCF9CFD6015096ED91FC9120
:1017A0005197808185FFF1CFC60169830E945B0B51
:1017B0006981EBCF838DE80FF11DE35AFF4F608302
:1017C000D6015B960C935B975296ED91FC915397E3
:1017D000808180620CC0D6015696ED91FC9157979E
:1017E00060835096ED91FC91519780818064808355
:1017F00081E090E00F90DF91CF911F910F91FF90CA
:10180000DF90CF900895BF92CF92DF92EF92FF9238
:10181000CF93DF93EC016A017B01B22EE889F9894D
:1018200082E08083411581EE580761057105A1F0C2
:1018300060E079E08DE390E0A70196010E945810E6
:1018400021503109410951095695479537952795FA
:10185000211580E1380798F0E889F989108260E85D
:1018600074E88EE190E0A70196010E945810215083
:101870003109410951095695479537952795EC85CA
:10188000FD853083EE85FF852083188EEC89FD89E8
:10189000B082EA89FB89808180618083EA89FB8943
:1018A000808188608083EA89FB8980818068808369
:1018B000EA89FB8980818F7D8083DF91CF91FF90C2
:1018C000EF90DF90CF90BF9008951F920F920FB6C8
:1018D0000F9211242F938F939F93EF93FF93E09197
:1018E0002503F09126038081E0912B03F0912C03D6
:1018F00082FD12C0908180912E038F5F8F732091A3
:101900002F03821751F0E0912E03F0E0EB5EFC4FC5
:10191000958F80932E0301C08081FF91EF919F915D
:101920008F912F910F900FBE0F901F9018951F92BF
:101930000F920FB60F9211242F933F934F935F9303
:101940006F937F938F939F93AF93BF93EF93FF9387
:1019500085E193E00E945B0BFF91EF91BF91AF9106
:101960009F918F917F916F915F914F913F912F91B7
:101970000F900FBE0F901F90189585E193E00E9485
:10198000200B21E0892B09F420E0822F089510928A
:1019900018031092170388EE93E0A0E0B0E0809364
:1019A000190390931A03A0931B03B0931C0388E1BF
:1019B00091E0909316038093150385EC90E090934B
:1019C00022038093210384EC90E09093240380937E
:1019D000230380EC90E0909326038093250381EC11
:1019E00090E0909328038093270382EC90E09093FB
:1019F0002A038093290386EC90E090932C03809334
:101A00002B0310922E0310922F031092300310928A
:101A100031030895CF92DF92EF92FF920F931F93BD
:101A2000CF93DF937C016A01EB0100E010E00C151D
:101A30001D0571F06991D701ED91FC910190F08144
:101A4000E02DC7010995892B19F00F5F1F4FEFCFCC
:101A5000C801DF91CF911F910F91FF90EF90DF9020
:101A6000CF9008956115710581F0DB010D90002084
:101A7000E9F7AD0141505109461B570BDC01ED91CF
:101A8000FC910280F381E02D099480E090E00895BC
:101A90000C94320D4F925F926F927F92AF92BF92F1
:101AA000CF92DF92EF92FF920F931F93CF93DF932A
:101AB000CDB7DEB729013A01621B730B840B950B7E
:101AC00029893A894B895C892A193B094C095D09A6
:101AD000298B3A8B4B8B5C8B9B01AC0169897A8992
:101AE0008B899C890E943C10E418F50806091709A7
:101AF000A80197010E947A102A0D3B1D4C1D5D1D07
:101B0000CA01B901DF91CF911F910F91FF90EF9022
:101B1000DF90CF90BF90AF907F906F905F904F908D
:101B20000895FC01808191810C945111CF93DF9332
:101B3000EC0188819981009711F00E94511119825E
:101B400018821D821C821B821A82DF91CF91089518
:101B50000F931F93CF93DF93EC018B016F5F7F4F48
:101B6000888199810E94E011009731F099838883E0
:101B70001B830A8381E001C080E0DF91CF911F9138
:101B80000F910895CF93DF93EC0188819981892B80
:101B900029F08A819B818617970760F4CE010E9405
:101BA000A80D882341F08C819D81892B19F4E8814F
:101BB000F981108281E0DF91CF910895EF92FF9239
:101BC0000F931F93CF93DF93EC017B018A01BA013E
:101BD0000E94C20D811104C0CE010E94960D07C063
:101BE0001D830C83B701888199810E94DA12CE018E
:101BF000DF91CF911F910F91FF90EF900895FC011D
:101C0000118210821382128215821482611571056D
:101C100059F0FB0101900020E9F7AF014150510953
:101C2000461B570B0C94DE0D0895CF93DF93EC0108
:101C30006115710561F0FB0101900020E9F7AF012A
:101C400041505109461B570B0E94DE0D02C00E94F5
:101C5000960DCE01DF91CF910895EF92FF920F93F1
:101C60001F93CF93DF93EC017B010C811D816115E4
:101C7000710511F480E016C04115510591F0040F73
:101C8000151FB8010E94C20D8823A1F32881398154
:101C90008C819D81B701820F931F0E94DA121D83F0
:101CA0000C8381E0DF91CF911F910F91FF90EF9016
:101CB0000895CF93DF9300D0CDB7DEB769831A8242
:101CC00041E050E0BE016F5F7F4F0E942D0E0F90EC
:101CD0000F90DF91CF910895FC0180819181009751
:101CE00011F00C94AA1260E070E0CB010895089501
:101CF0000E944D0A0E94770E0E948900CDE4DBE02D
:101D00000E94A0062097E1F30E944D0BF9CF0895A1
:101D10005058BB27AA270ED071C162D130F067D1CD
:101D200020F031F49F3F11F41EF457C10EF4E095FA
:101D3000E7FB4DC1E92F73D180F3BA176207730730
:101D40008407950718F071F49EF58BC10EF4E095A9
:101D50000B2EBA2FA02D0B01B90190010C01CA0165
:101D6000A0011124FF27591B99F0593F50F4503E10
:101D700068F11A16F040A22F232F342F4427585F02
:101D8000F3CF469537952795A795F0405395C9F71A
:101D90007EF41F16BA0B620B730B840BBAF09150D2
:101DA000A1F0FF0FBB1F661F771F881FC2F70EC071
:101DB000BA0F621F731F841F48F487957795679544
:101DC000B795F7959E3F08F0B3CF9395880F08F02D
:101DD0009927EE0F9795879508950CD00FC107D1DD
:101DE00040F0FED030F021F45F3F19F0F0C0511107
:101DF00039C1F3C014D198F39923C9F35523B1F332
:101E0000951B550BBB27AA2762177307840738F069
:101E10009F5F5F4F220F331F441FAA1FA9F333D0C8
:101E20000E2E3AF0E0E830D091505040E695001C7C
:101E3000CAF729D0FE2F27D0660F771F881FBB1F38
:101E4000261737074807AB07B0E809F0BB0B802D12
:101E5000BF01FF2793585F4F2AF09E3F510568F05E
:101E6000B6C000C15F3FECF3983EDCF386957795F2
:101E70006795B795F7959F5FC9F7880F911D969560
:101E8000879597F90895E1E0660F771F881FBB1FBC
:101E9000621773078407BA0720F0621B730B840B69
:101EA000BA0BEE1F88F7E095089504D06894B1113D
:101EB000D9C00895BCD088F09F5790F0B92F9927CA
:101EC000B751A0F0D1F0660F771F881F991F1AF045
:101ED000BA95C9F712C0B13081F0C3D0B1E008950E
:101EE000C0C0672F782F8827B85F39F0B93FCCF38F
:101EF000869577956795B395D9F73EF4909580953B
:101F0000709561957F4F8F4F9F4F0895E89409C05A
:101F100097FB3EF490958095709561957F4F8F4F1C
:101F20009F4F9923A9F0F92F96E9BB279395F69532
:101F3000879577956795B795F111F8CFFAF4BB0FB0
:101F400011F460FF1BC06F5F7F4F8F4F9F4F16C014
:101F5000882311F096E911C0772321F09EE8872F9E
:101F6000762F05C0662371F096E8862F70E060E05A
:101F70002AF09A95660F771F881FDAF7880F9695D3
:101F8000879597F90895990F0008550FAA0BE0E877
:101F9000FEEF16161706E807F907C0F0121613062B
:101FA000E407F50798F0621B730B840B950B39F46B
:101FB0000A2661F0232B242B252B21F408950A26D1
:101FC00009F4A140A6958FEF811D811D089597F911
:101FD0009F6780E870E060E008959FEF80EC0895CF
:101FE00000240A94161617061806090608950024F8
:101FF0000A9412161306140605060895092E039472
:10200000000C11F4882352F0BB0F40F4BF2B11F4E5
:1020100060FF04C06F5F7F4F8F4F9F4F089557FD44
:102020009058440F551F59F05F3F71F04795880F46
:1020300097FB991F61F09F3F79F0879508951216DD
:1020400013061406551FF2CF4695F1DF08C0161689
:1020500017061806991FF1CF86957105610508943A
:102060000895E894BB2766277727CB0197F9089551
:102070008ADF08F48FEF0895DB018F939F930E940E
:102080009910BF91AF91A29F800D911DA39F900DBC
:10209000B29F900D11240895991B79E004C0991FF7
:1020A000961708F0961B881F7A95C9F780950895B2
:1020B000A1E21A2EAA1BBB1BFD010DC0AA1FBB1F4C
:1020C000EE1FFF1FA217B307E407F50720F0A21BBE
:1020D000B30BE40BF50B661F771F881F991F1A942B
:1020E00069F760957095809590959B01AC01BD0155
:1020F000CF010895052E97FB1EF400940E949110C5
:1021000057FD07D00E94581007FC03D04EF40C94E2
:10211000911050954095309521953F4F4F4F5F4F0F
:10212000089590958095709561957F4F8F4F9F4F43
:1021300008950E94AA10A59F900DB49F900DA49F92
:10214000800D911D11240895EE0FFF1F0590F4914D
:10215000E02D0994A29FB001B39FC001A39F700D11
:10216000811D1124911DB29F700D811D1124911D9F
:102170000895CF93DF938230910510F482E090E0D0
:10218000E091B403F091B50320E030E0A0E0B0E0CE
:10219000309739F14081518148175907B8F04817F5
:1021A000590771F482819381109729F013969C93BB
:1021B0008E9312972CC09093B5038093B40327C0DD
:1021C0002115310531F04217530718F0A901DB0141
:1021D00001C0EF019A01BD01DF010280F381E02D12
:1021E000D7CF21153105F9F0281B390B24303105E3
:1021F00080F48A819B816115710521F0FB01938335
:10220000828304C09093B5038093B403FE01329699
:1022100044C0FE01E20FF31F8193919322503109D4
:10222000398328833AC02091B2033091B303232B22
:1022300041F420910201309103013093B3032093C4
:10224000B20320910001309101012115310541F4C3
:102250002DB73EB74091040150910501241B350B69
:10226000E091B203F091B303E217F307A0F42E1B41
:102270003F0B2817390778F0AC014E5F5F4F2417EA
:10228000350748F04E0F5F1F5093B3034093B203DE
:102290008193919302C0E0E0F0E0CF01DF91CF9114
:1022A0000895CF93DF93009709F487C0FC0132971C
:1022B00013821282C091B403D091B503209781F4A8
:1022C00020813181280F391F8091B2039091B3038F
:1022D0008217930779F5F093B303E093B2036DC0CF
:1022E000DE0120E030E0AE17BF0750F412964D91AA
:1022F0005C9113979D014115510509F1DA01F3CF66
:10230000B383A28340815181840F951F8A179B0755
:1023100071F48D919C911197840F951F0296918372
:10232000808312968D919C911397938382832115BC
:10233000310529F4F093B503E093B4033EC0D9010D
:102340001396FC93EE9312974D915D91A40FB51FD8
:10235000EA17FB0779F480819181840F951F02961B
:10236000D90111969C938E938281938113969C93AD
:102370008E931297E0E0F0E08A819B81009719F03C
:10238000FE01EC01F9CFCE01029628813981820F3E
:10239000931F2091B2033091B3032817390769F4D2
:1023A000309729F41092B5031092B40302C013823F
:1023B0001282D093B303C093B203DF91CF910895FB
:1023C000A0E0B0E0E6EEF1E10C94FA12EC01CB01F2
:1023D000209719F40E94B910B8C0FE01E60FF71F4C
:1023E0009E0122503109E217F30708F4ACC0D9016D
:1023F0000D911C91119706171707B8F005301105BC
:1024000008F49FC0A801445051094617570708F423
:1024100098C002501109061B170B019311936D937D
:102420007C93CF010E9451118CC05B01A01AB10AAC
:102430004E01800E911EA091B403B091B503612CA2
:10244000712C60E070E0109709F449C0A815B90537
:10245000C9F5ED90FC901197670142E0C40ED11CC4
:10246000CA14DB0478F147018A189B08640142E032
:10247000C40ED11C1296BC9012971396AC91B5E085
:10248000CB16D10440F0B282A38391828082D9011D
:102490008D939C9309C00E5F1F4F0E0D1F1DF901F8
:1024A00011830083EB2DFA2F6115710531F0DB01EB
:1024B0001396FC93EE93129744C0F093B503E09308
:1024C000B4033FC06D917C9111976616770608F4AE
:1024D0003B01BD0112960D90BC91A02DB4CF60912F
:1024E000B2037091B30368157905E9F468167906AB
:1024F000D0F440910001509101014115510541F482
:102500004DB75EB76091040170910501461B570BF2
:10251000E417F507C0F4F093B303E093B203F901B5
:10252000918380830EC00E94B9107C01009759F0FE
:10253000A801BE010E94D112CE010E945111C70113
:1025400004C0CE0102C080E090E0CDB7DEB7EEE07F
:102550000C9416131F93FC0199278827BC01E8945B
:1025600011911032E9F3193010F01E30C8F31B320C
:1025700051F01D3249F4689406C00E94E112610FC7
:10258000711D811D911D119110531A30B0F33EF44D
:1025900090958095709561957F4F8F4F9F4F1F91BC
:1025A0000895FB01DC0102C001900D9241505040A2
:1025B000D8F70895FB01DC0101900D920020E1F7AE
:1025C0000895592F482F372F262F660F771F881F02
:1025D000991F660F771F881F991F620F731F841F33
:1025E000951F660F771F881F991F08952F923F929E
:1025F0004F925F926F927F928F929F92AF92BF9213
:10260000CF92DF92EF92FF920F931F93CF93DF93BE
:10261000CDB7DEB7CA1BDB0B0FB6F894DEBF0FBE1B
:10262000CDBF09942A88398848885F846E847D8468
:102630008C849B84AA84B984C884DF80EE80FD806A
:102640000C811B81AA81B981CE0FD11D0FB6F894E0
:10265000DEBF0FBECDBFED01089510E0CCEBD0E0A2
:1026600004C0FE010E94A6102296CE3BD107C9F7F6
:04267000F894FFCF0C
:102674000000B60380000100000001010101E8032D
:1026840001007200000000009E0B0A0D200B390BA4
:042694002B0B7C0B85
:107E0000112484B714BE81FFF0D085E080938100F7
:107E100082E08093C00088E18093C10086E0809377
:107E2000C20080E18093C4008EE0C9D0259A86E02C
:107E300020E33CEF91E0309385002093840096BBD3
:107E4000B09BFECF1D9AA8958150A9F7CC24DD24C4
:107E500088248394B5E0AB2EA1E19A2EF3E0BF2EE7
:107E6000A2D0813461F49FD0082FAFD0023811F036
:107E7000013811F484E001C083E08DD089C08234E0
:107E800011F484E103C0853419F485E0A6D080C0E4
:107E9000853579F488D0E82EFF2485D0082F10E0AE
:107EA000102F00270E291F29000F111F8ED06801E7
:107EB0006FC0863521F484E090D080E0DECF843638
:107EC00009F040C070D06FD0082F6DD080E0C81688
:107ED00080E7D80618F4F601B7BEE895C0E0D1E017
:107EE00062D089930C17E1F7F0E0CF16F0E7DF06D8
:107EF00018F0F601B7BEE89568D007B600FCFDCFD4
:107F0000A601A0E0B1E02C9130E011968C91119780
:107F100090E0982F8827822B932B1296FA010C0160
:107F200087BEE89511244E5F5F4FF1E0A038BF0790
:107F300051F7F601A7BEE89507B600FCFDCF97BE46
:107F4000E89526C08437B1F42ED02DD0F82E2BD052
:107F50003CD0F601EF2C8F010F5F1F4F84911BD097
:107F6000EA94F801C1F70894C11CD11CFA94CF0C13
:107F7000D11C0EC0853739F428D08EE10CD085E9AC
:107F80000AD08FE07ACF813511F488E018D01DD067
:107F900080E101D065CF982F8091C00085FFFCCF94
:107FA0009093C60008958091C00087FFFCCF809118
:107FB000C00084FD01C0A8958091C6000895E0E648
:107FC000F0E098E1908380830895EDDF803219F02E
:107FD00088E0F5DFFFCF84E1DECF1F93182FE3DFCA
:107FE0001150E9F7F2DF1F91089580E0E8DFEE27F6
:047FF000FF270994CA
:027FFE00040479
:0400000300007E007B
:00000001FF
